:1000000033C000004CC000004AC0000048C00000DF
:1000100046C0000044C0000042C0000040C00000D4
:100020003EC000003CC0000082C1000038C000009B
:1000300036C0000034C0000032C0000030C00000F4
:100040002EC000002CC000002AC0000028C0000004
:1000500026C0000024C0000022C0000020C0000014
:100060001EC000001CC0000011241FBECFEFD8E04E
:10007000DEBFCDBF11E0A0E0B1E0EEEDF7E002C0E1
:1000800005900D92A034B107D9F711E0A0E4B1E0DA
:1000900001C01D92A836B107E1F781D29EC3B0CF4F
:1000A000CF93DF9300D0CDB7DEB79A83898384ECFA
:1000B00090E02981FC01208385EC90E029813A8140
:1000C000232F330F330BFC01208382EC90E026E0DA
:1000D000FC01208381EC90E028E1FC0120830F905B
:1000E0000F90DF91CF910895CF93DF931F92CDB7FB
:1000F000DEB78983000080EC90E0FC018081882FCE
:1001000090E0807299270097B1F386EC90E0298106
:10011000FC0120830F90DF91CF910895CF93DF935F
:10012000CDB7DEB7000080EC90E0FC018081882331
:10013000D4F786EC90E0FC018081DF91CF910895A7
:10014000CF93DF931F92CDB7DEB780EC90E0FC0138
:1001500080818823C4F5E2DF89838981282F30E0FC
:10016000409102015091030180914001882F90E05D
:10017000840F951FFC018081992787FD9095281792
:100180003907F1F4809140018F5F80934001209105
:1001900002013091030180914001882F90E0820F8D
:1001A000931FFC018081882379F49091410181E0C3
:1001B000992309F080E0809341011092400104C02E
:1001C0001092400101C000000F90DF91CF9108957F
:1001D000CF93DF9300D000D0CDB7DEB79C838B8365
:1001E0001A8219821DC020910001309101014CE05A
:1001F00050E089819A81481B590B8B819C8102C0F8
:10020000969587954A95E2F78F709927820F931FED
:10021000FC01808169DF89819A8104969A838983B0
:1002200089819A8180319105F4F280E25DDF0F903F
:100230000F900F900F90DF91CF910895CF93DF93A0
:10024000CDB7DEB78DE050DF8AE04EDFDF91CF9192
:100250000895CF93DF9300D0CDB7DEB789836A834B
:1002600020910401309105018A81882F90E0AC0132
:10027000440F551F440F551F8981882F90E0840F2C
:10028000951F820F931FFC0180812EDF0F900F902E
:10029000DF91CF910895CF93DF93CDB7DEB784E29E
:1002A00090E02FE0FC01208385E290E0FC011082C9
:1002B00087E290E0FC01108288E290E0FC0110826D
:1002C0008AE290E0FC0110828BE290E0FC01108257
:1002D000DF91CF910895CF93DF93CDB7DEB780E55F
:1002E00090E0FC0110828BE790E020E4FC01208389
:1002F0008AE790E02AE730E0F90120812F77FC01BE
:10030000208380E590E024E0FC01208380E890E0F9
:10031000FC01108282E890E0FC01108281E890E00C
:1003200020E8FC0120837894DF91CF9108951F92FB
:100330000F9200905F000F9211248F939F93EF9381
:10034000FF93CF93DF93CDB7DEB78FE690E0FC014C
:1003500010821092430110924201DF91CF91FF91E0
:10036000EF919F918F910F9000925F000F901F90DF
:100370001895CF92DF92EF92FF920F931F93CF9336
:10038000DF9300D0CDB7DEB789836A8381E090E048
:10039000909343018093420184E890E0FC01118234
:1003A00010828981882F90E0880F991F815D9E4F70
:1003B000FC01F0808981882F90E0880F991F825D71
:1003C0009E4FFC01E0808A81882F90E0880F991F62
:1003D000895C9E4FFC01D0808A81882F90E0880F35
:1003E000991F8A5C9E4FFC01C08006E910E00CC09A
:1003F00017B8D7B8F5B800C000C0000017B8C7B824
:10040000E5B800C000C0000081E00115110509F445
:1004100080E001501109882359F784E290E0FC0143
:1004200010828CE790E02A81222F30E0245C3E4F3E
:10043000F9012081FC0120838BE790E020E4FC019E
:10044000208381E890E021E8FC01208386E390E0AE
:1004500020E2FC0120838FE690E020E2FC01208373
:1004600080E890E08BB980E890E08AB90000809144
:100470004201909143010097D1F781E890E020E894
:10048000FC0120838BE290E0FC0110828AE290E084
:10049000FC0110828BE790E0FC01108284E290E086
:1004A0002FE0FC01208386E890E0FC0180819181AF
:1004B0000F900F90DF91CF911F910F91FF90EF90D0
:1004C000DF90CF900895EF92FF920F931F93CF93F9
:1004D000DF93CDB7DEB727970FB6F894DEBF0FBE18
:1004E000CDBF84E491E09D838C838CE591E09F8374
:1004F0008E83198216C08E819F81FC0110828E81AD
:100500009F8101969F838E838C819D81FC01118246
:1005100010828C819D8102969D838C8389818F5F5F
:10052000898389818C3038F3198229C084E491E071
:100530009D838C831B821DC01A8215C00C811D8176
:10054000F801E080F1806B818A8113DF8E0D9F1DA1
:10055000F801918380838C819D8102969D838C8399
:100560008A818F5F8A838A81843040F38B818F5F99
:100570008B838B81833000F389818F5F89838981AD
:100580008031A0F227960FB6F894DEBF0FBECDBF24
:10059000DF91CF911F910F91FF90EF900895CF932E
:1005A000DF93CDB7DEB728970FB6F894DEBF0FBE46
:1005B000CDBF83E390E074DD6EDE8DDE84DF01C0AD
:1005C0000000BEDD84E491E09C838B838CE591E0A8
:1005D0009E838D831A82F6C01982EDC06A8189815B
:1005E000C8DE98878F83809141018823F9F020919C
:1005F0000401309105018A81882F90E0AC01440FFD
:10060000551F440F551F8981882F90E0840F951F37
:10061000820F931FFC01808167DD8F819885D8DD73
:100620008B819C81FC0180819181D2DD8D819E81B5
:10063000FC018081882309F453C08B819C81FC01DB
:10064000808191819C01329522952F7023273F70E4
:1006500023278B819C81FC0180819181892F99279F
:1006600086958695281B390B8F819885821793076D
:10067000B8F58D819E81FC018081853630F18B81BA
:100680009C81FC01208131818B819C81FC018081D6
:100690009181929582958F7089279F708927281B59
:1006A000390B8B819C81FC01318320838B819C8160
:1006B000FC01208131818F819885280F391F8B8122
:1006C0009C81FC013183208360C08D819E81FC016F
:1006D0008081282F2F5F8D819E81FC01208355C052
:1006E0008D819E81FC018081882331F58B819C81E5
:1006F000FC01808191819C01329522952F702327E6
:100700003F7023278B819C81FC0180819181892FFF
:1007100099278695281B390B8F8198858217930717
:1007200058F48D819E81FC018081282F2F5F8D815F
:100730009E81FC01208329C08D819E81FC01108255
:100740008B819C81FC01208131818B819C81FC010A
:1007500080819181929582958F7089279F708927DA
:10076000281B390B8B819C81FC01318320838B8179
:100770009C81FC01208131818F819885280F391F50
:100780008B819C81FC01318320838D819E81FC01C2
:100790008081823019F46A8189815BDD8B819C8143
:1007A00002969C838B838D819E8101969E838D838F
:1007B00089818F5F89838981843008F40FCF8A8192
:1007C0008F5F8A838A81833008F406CF809141014C
:0E07D000882309F4F5CE32DDF3CEF894FFCF86
:1007DE00060117011D0130313233343536373839C1
:1007EE0061626364656600646562756700304239F4
:1007FE003643383533373431322E2E2E2E0000014B
:10080E000002000400080102080410200102050085
:00000001FF
