:1000000033C000004CC000004AC0000048C00000DF
:1000100046C0000044C0000042C0000040C00000D4
:100020003EC000003CC000003AC0000038C00000E4
:1000300036C0000034C0000032C0000030C00000F4
:100040002EC000002CC000002AC0000028C0000004
:1000500026C0000024C0000022C0000020C0000014
:100060001EC000001CC0000011241FBECFEFD8E04E
:10007000DEBFCDBF11E0A0E0B1E0EAE4F5E002C0F0
:1000800005900D92A833B107D9F711E0A8E3B1E0CC
:1000900001C01D92AC35B107E1F789D154C2B0CF90
:1000A000CF93DF9300D0CDB7DEB79A83898384ECFA
:1000B00090E02981FC01208385EC90E029813A8140
:1000C000232F330F330BFC01208382EC90E026E0DA
:1000D000FC01208381EC90E028E0FC0120830F905C
:1000E0000F90DF91CF910895CF93DF931F92CDB7FB
:1000F000DEB78983000080EC90E0FC018081882FCE
:1001000090E0807299270097B1F386EC90E0298106
:10011000FC0120830F90DF91CF910895CF93DF935F
:1001200000D0CDB7DEB789836A8320910201309178
:1001300003018A81882F90E0AC01440F551F440FC2
:10014000551F8981882F90E0840F951F820F931F80
:10015000FC018081C9DF0F900F90DF91CF9108954E
:10016000CF92DF92EF92FF920F931F93CF93DF9383
:1001700000D000D0CDB7DEB78B836C838B81882F06
:1001800090E0880F991F895D9E4FFC01F0808B8164
:10019000882F90E0880F991F8A5D9E4FFC01E080B8
:1001A0008C81882F90E0880F991F815D9E4FFC0104
:1001B000D0808C81882F90E0880F991F825D9E4FA0
:1001C000FC01C08006E910E00CC017B8D7B8F5B83C
:1001D00000C000C0000017B8C7B8E5B800C000C034
:1001E000000081E00115110509F480E001501109BA
:1001F000882359F784E290E0FC0110821A82198268
:100200008CE790E02C81222F30E02C5C3E4FF901EE
:100210002081FC0120838BE790E020E4FC01208317
:1002200080E890E08BB980E890E08AB905C08981C8
:100230009A8101969A83898380E590E0FC01808110
:10024000882F90E080729927009789F78BE290E0E1
:10025000FC0110828AE290E0FC0110828BE790E0C2
:10026000FC01108284E290E02FE0FC012083898170
:100270009A810F900F900F900F90DF91CF911F9167
:100280000F91FF90EF90DF90CF900895CF92DF9283
:10029000EF92FF920F931F93CF93DF9300D01F92A3
:1002A000CDB7DEB71B822EC01A8226C08B81282FC5
:1002B00030E08A81882F90E0220F331F220F331FF6
:1002C000820F931F880F991F885C9E4FFC0111823B
:1002D00010828B81282F30E08A81882F90E0220FB6
:1002E000331F220F331F820F931F805B9E4FFC0131
:1002F00010828A818F5F8A838A818430B8F28B81F1
:100300008F5F8B838B81833078F2198240C01B8290
:1003100038C01A8230C08B81E82EF12C8A81082FD8
:1003200010E08B81282F30E08A81882F90E0220F07
:10033000331F220F331F820F931F880F991F885C72
:100340009E4FFC01C080D1806B818A8109DF9601BC
:10035000280F391FC701880F991F880F991F800F19
:10036000911F880F991F885C9E4FFC013183208369
:100370008A818F5F8A838A81843068F28B818F5F64
:100380008B838B81833028F289818F5F8983898178
:10039000803108F4BCCF0F900F900F90DF91CF9178
:1003A0001F910F91FF90EF90DF90CF900895CF9322
:1003B000DF93CDB7DEB728970FB6F894DEBF0FBE38
:1003C000CDBF83E390E06CDE61DF1A82B7C0198293
:1003D000AEC06A818981C4DE9C838B838A81282F89
:1003E00030E08981882F90E0220F331F220F331FC6
:1003F000820F931F880F991F885C9E4F9E838D8369
:100400008A81282F30E08981882F90E0220F331FC6
:10041000220F331F820F931F805B9E4F98878F831D
:100420008D819E81FC01808191819C013295229574
:100430002F7023273F7023278D819E81FC018081AF
:100440009181892F9927281B390B8B819C818217D9
:10045000930708F040C08F819885FC018081882334
:1004600019F46A8189815ADE8F819885FC01808127
:10047000853630F18D819E81FC01208131818D8115
:100480009E81FC0180819181929582958F70892750
:100490009F708927281B390B8D819E81FC01318338
:1004A00020838D819E81FC01208131818B819C8103
:1004B000280F391F8D819E81FC013183208334C038
:1004C0008F819885FC018081282F2F5F8F819885EF
:1004D000FC01208329C08F819885FC0110828D81C9
:1004E0009E81FC01208131818D819E81FC01808172
:1004F0009181929582958F7089279F708927281BFB
:10050000390B8D819E81FC01318320838D819E81F9
:10051000FC01208131818B819C81280F391F8D81C5
:100520009E81FC013183208389818F5F898389814A
:10053000843008F44ECF8A818F5F8A838A8183302A
:0A05400008F445CF42CFF894FFCF36
:10054A0004011501303132333435363738396162B6
:10055A00636465660030423936433835333734319F
:10056A00322E2E2E2E000001000200040008010285
:08057A00080410200102050035
:00000001FF
